{
  "_format": "hh-sol-artifact-1",
  "contractName": "newContract",
  "sourceName": "contracts/newcontract.sol",
  "abi": [
    {
      "inputs": [],
      "stateMutability": "nonpayable",
      "type": "constructor"
    },
    {
      "anonymous": false,
      "inputs": [
        {
          "indexed": true,
          "internalType": "address",
          "name": "salamkon",
          "type": "address"
        },
        {
          "indexed": true,
          "internalType": "string",
          "name": "message",
          "type": "string"
        },
        {
          "indexed": false,
          "internalType": "uint256",
          "name": "timestamp",
          "type": "uint256"
        }
      ],
      "name": "newSalam",
      "type": "event"
    },
    {
      "inputs": [
        {
          "internalType": "string",
          "name": "userName",
          "type": "string"
        },
        {
          "internalType": "string",
          "name": "message",
          "type": "string"
        }
      ],
      "name": "Salam",
      "outputs": [],
      "stateMutability": "nonpayable",
      "type": "function"
    },
    {
      "inputs": [],
      "name": "getAllSalamkona",
      "outputs": [
        {
          "components": [
            {
              "internalType": "address",
              "name": "salamkon",
              "type": "address"
            },
            {
              "internalType": "string",
              "name": "message",
              "type": "string"
            },
            {
              "internalType": "uint256",
              "name": "timestamp",
              "type": "uint256"
            }
          ],
          "internalType": "struct newContract.salamkona[]",
          "name": "",
          "type": "tuple[]"
        }
      ],
      "stateMutability": "view",
      "type": "function"
    },
    {
      "inputs": [],
      "name": "getTotalSalams",
      "outputs": [
        {
          "internalType": "uint256",
          "name": "",
          "type": "uint256"
        }
      ],
      "stateMutability": "view",
      "type": "function"
    },
    {
      "inputs": [
        {
          "internalType": "string",
          "name": "userName",
          "type": "string"
        }
      ],
      "name": "getUserSalams",
      "outputs": [
        {
          "internalType": "uint256",
          "name": "",
          "type": "uint256"
        }
      ],
      "stateMutability": "view",
      "type": "function"
    }
  ],
  "bytecode": "0x60806040523480156200001157600080fd5b506200005d6040518060400160405280601281526020017f73696e61206973206261636b20626162792100000000000000000000000000008152506200006360201b6200043d1760201c565b620001ed565b62000103816040516024016200007a9190620001c9565b6040516020818303038152906040527f41304fac000000000000000000000000000000000000000000000000000000007bffffffffffffffffffffffffffffffffffffffffffffffffffffffff19166020820180517bffffffffffffffffffffffffffffffffffffffffffffffffffffffff83818316178352505050506200010660201b60201c565b50565b60008151905060006a636f6e736f6c652e6c6f679050602083016000808483855afa5050505050565b600081519050919050565b600082825260208201905092915050565b60005b838110156200016b5780820151818401526020810190506200014e565b60008484015250505050565b6000601f19601f8301169050919050565b600062000195826200012f565b620001a181856200013a565b9350620001b38185602086016200014b565b620001be8162000177565b840191505092915050565b60006020820190508181036000830152620001e5818462000188565b905092915050565b610f8480620001fd6000396000f3fe608060405234801561001057600080fd5b506004361061004c5760003560e01c806369845d5a146100515780639c0245091461006f5780639dec3acc1461009f578063aa650c7f146100bb575b600080fd5b6100596100d9565b6040516100669190610839565b60405180910390f35b610089600480360381019061008491906109a4565b61022a565b60405161009691906109fc565b60405180910390f35b6100b960048036038101906100b49190610a17565b610252565b005b6100c36103f2565b6040516100d091906109fc565b60405180910390f35b60606000805480602002602001604051908101604052809291908181526020016000905b8282101561022157838290600052602060002090600302016040518060600160405290816000820160009054906101000a900473ffffffffffffffffffffffffffffffffffffffff1673ffffffffffffffffffffffffffffffffffffffff1673ffffffffffffffffffffffffffffffffffffffff16815260200160018201805461018690610abe565b80601f01602080910402602001604051908101604052809291908181526020018280546101b290610abe565b80156101ff5780601f106101d4576101008083540402835291602001916101ff565b820191906000526020600020905b8154815290600101906020018083116101e257829003601f168201915b50505050508152602001600282015481525050815260200190600101906100fd565b50505050905090565b600060018260405161023c9190610b2b565b9081526020016040518091039020549050919050565b600180836040516102639190610b2b565b908152602001604051809103902060008282546102809190610b71565b9250508190555060016002600082825461029a9190610b71565b925050819055506102c5604051806060016040528060268152602001610f29602691393384846104d6565b600060405180606001604052803373ffffffffffffffffffffffffffffffffffffffff16815260200183815260200142815250908060018154018082558091505060019003906000526020600020906003020160009091909190915060008201518160000160006101000a81548173ffffffffffffffffffffffffffffffffffffffff021916908373ffffffffffffffffffffffffffffffffffffffff160217905550602082015181600101908161037d9190610d51565b50604082015181600201555050806040516103989190610b2b565b60405180910390203373ffffffffffffffffffffffffffffffffffffffff167f121625b752ec5e4e2e6fbd2121765621136672cdc055012c9411be9cd0a65a65426040516103e691906109fc565b60405180910390a35050565b60006104356040518060400160405280601c81526020017f796f75206861766520746f74616c206f662025642073616c616d732100000000815250600254610578565b600254905090565b6104d3816040516024016104519190610e6d565b6040516020818303038152906040527f41304fac000000000000000000000000000000000000000000000000000000007bffffffffffffffffffffffffffffffffffffffffffffffffffffffff19166020820180517bffffffffffffffffffffffffffffffffffffffffffffffffffffffff8381831617835250505050610614565b50565b610572848484846040516024016104f09493929190610e9e565b6040516020818303038152906040527f245986f2000000000000000000000000000000000000000000000000000000007bffffffffffffffffffffffffffffffffffffffffffffffffffffffff19166020820180517bffffffffffffffffffffffffffffffffffffffffffffffffffffffff8381831617835250505050610614565b50505050565b610610828260405160240161058e929190610ef8565b6040516020818303038152906040527fb60e72cc000000000000000000000000000000000000000000000000000000007bffffffffffffffffffffffffffffffffffffffffffffffffffffffff19166020820180517bffffffffffffffffffffffffffffffffffffffffffffffffffffffff8381831617835250505050610614565b5050565b60008151905060006a636f6e736f6c652e6c6f679050602083016000808483855afa5050505050565b600081519050919050565b600082825260208201905092915050565b6000819050602082019050919050565b600073ffffffffffffffffffffffffffffffffffffffff82169050919050565b600061069482610669565b9050919050565b6106a481610689565b82525050565b600081519050919050565b600082825260208201905092915050565b60005b838110156106e45780820151818401526020810190506106c9565b60008484015250505050565b6000601f19601f8301169050919050565b600061070c826106aa565b61071681856106b5565b93506107268185602086016106c6565b61072f816106f0565b840191505092915050565b6000819050919050565b61074d8161073a565b82525050565b600060608301600083015161076b600086018261069b565b50602083015184820360208601526107838282610701565b91505060408301516107986040860182610744565b508091505092915050565b60006107af8383610753565b905092915050565b6000602082019050919050565b60006107cf8261063d565b6107d98185610648565b9350836020820285016107eb85610659565b8060005b85811015610827578484038952815161080885826107a3565b9450610813836107b7565b925060208a019950506001810190506107ef565b50829750879550505050505092915050565b6000602082019050818103600083015261085381846107c4565b905092915050565b6000604051905090565b600080fd5b600080fd5b600080fd5b600080fd5b7f4e487b7100000000000000000000000000000000000000000000000000000000600052604160045260246000fd5b6108b1826106f0565b810181811067ffffffffffffffff821117156108d0576108cf610879565b5b80604052505050565b60006108e361085b565b90506108ef82826108a8565b919050565b600067ffffffffffffffff82111561090f5761090e610879565b5b610918826106f0565b9050602081019050919050565b82818337600083830152505050565b6000610947610942846108f4565b6108d9565b90508281526020810184848401111561096357610962610874565b5b61096e848285610925565b509392505050565b600082601f83011261098b5761098a61086f565b5b813561099b848260208601610934565b91505092915050565b6000602082840312156109ba576109b9610865565b5b600082013567ffffffffffffffff8111156109d8576109d761086a565b5b6109e484828501610976565b91505092915050565b6109f68161073a565b82525050565b6000602082019050610a1160008301846109ed565b92915050565b60008060408385031215610a2e57610a2d610865565b5b600083013567ffffffffffffffff811115610a4c57610a4b61086a565b5b610a5885828601610976565b925050602083013567ffffffffffffffff811115610a7957610a7861086a565b5b610a8585828601610976565b9150509250929050565b7f4e487b7100000000000000000000000000000000000000000000000000000000600052602260045260246000fd5b60006002820490506001821680610ad657607f821691505b602082108103610ae957610ae8610a8f565b5b50919050565b600081905092915050565b6000610b05826106aa565b610b0f8185610aef565b9350610b1f8185602086016106c6565b80840191505092915050565b6000610b378284610afa565b915081905092915050565b7f4e487b7100000000000000000000000000000000000000000000000000000000600052601160045260246000fd5b6000610b7c8261073a565b9150610b878361073a565b9250828201905080821115610b9f57610b9e610b42565b5b92915050565b60008190508160005260206000209050919050565b60006020601f8301049050919050565b600082821b905092915050565b600060088302610c077fffffffffffffffffffffffffffffffffffffffffffffffffffffffffffffffff82610bca565b610c118683610bca565b95508019841693508086168417925050509392505050565b6000819050919050565b6000610c4e610c49610c448461073a565b610c29565b61073a565b9050919050565b6000819050919050565b610c6883610c33565b610c7c610c7482610c55565b848454610bd7565b825550505050565b600090565b610c91610c84565b610c9c818484610c5f565b505050565b5b81811015610cc057610cb5600082610c89565b600181019050610ca2565b5050565b601f821115610d0557610cd681610ba5565b610cdf84610bba565b81016020851015610cee578190505b610d02610cfa85610bba565b830182610ca1565b50505b505050565b600082821c905092915050565b6000610d2860001984600802610d0a565b1980831691505092915050565b6000610d418383610d17565b9150826002028217905092915050565b610d5a826106aa565b67ffffffffffffffff811115610d7357610d72610879565b5b610d7d8254610abe565b610d88828285610cc4565b600060209050601f831160018114610dbb5760008415610da9578287015190505b610db38582610d35565b865550610e1b565b601f198416610dc986610ba5565b60005b82811015610df157848901518255600182019150602085019450602081019050610dcc565b86831015610e0e5784890151610e0a601f891682610d17565b8355505b6001600288020188555050505b505050505050565b600082825260208201905092915050565b6000610e3f826106aa565b610e498185610e23565b9350610e598185602086016106c6565b610e62816106f0565b840191505092915050565b60006020820190508181036000830152610e878184610e34565b905092915050565b610e9881610689565b82525050565b60006080820190508181036000830152610eb88187610e34565b9050610ec76020830186610e8f565b8181036040830152610ed98185610e34565b90508181036060830152610eed8184610e34565b905095945050505050565b60006040820190508181036000830152610f128185610e34565b9050610f2160208301846109ed565b939250505056fe257320616b6120257320736169642053616c616d2077697468206d617373616765203a202573a2646970667358221220c09f179c335b68dd2e45171af7534289ec6761ae875794adba62af18a61bdfce64736f6c63430008110033",
  "linkReferences": {},
  "deployedLinkReferences": {}
}