{
  "_format": "hh-sol-artifact-1",
  "contractName": "newContract",
  "sourceName": "contracts/newcontract.sol",
  "abi": [
    {
      "inputs": [],
      "stateMutability": "payable",
      "type": "constructor"
    },
    {
      "anonymous": false,
      "inputs": [
        {
          "indexed": true,
          "internalType": "address",
          "name": "salamkon",
          "type": "address"
        },
        {
          "indexed": true,
          "internalType": "string",
          "name": "message",
          "type": "string"
        },
        {
          "indexed": true,
          "internalType": "uint256",
          "name": "numberOfSalams",
          "type": "uint256"
        },
        {
          "indexed": false,
          "internalType": "uint256",
          "name": "timestamp",
          "type": "uint256"
        }
      ],
      "name": "newSalam",
      "type": "event"
    },
    {
      "inputs": [
        {
          "internalType": "string",
          "name": "message",
          "type": "string"
        }
      ],
      "name": "Salam",
      "outputs": [],
      "stateMutability": "nonpayable",
      "type": "function"
    },
    {
      "inputs": [],
      "name": "getAllSalamkona",
      "outputs": [
        {
          "components": [
            {
              "internalType": "address",
              "name": "salamkon",
              "type": "address"
            },
            {
              "internalType": "string",
              "name": "message",
              "type": "string"
            },
            {
              "internalType": "uint256",
              "name": "numberOfSalams",
              "type": "uint256"
            },
            {
              "internalType": "uint256",
              "name": "timestamp",
              "type": "uint256"
            }
          ],
          "internalType": "struct newContract.salamkona[]",
          "name": "",
          "type": "tuple[]"
        }
      ],
      "stateMutability": "view",
      "type": "function"
    },
    {
      "inputs": [],
      "name": "getTotalSalams",
      "outputs": [
        {
          "internalType": "uint256",
          "name": "",
          "type": "uint256"
        }
      ],
      "stateMutability": "view",
      "type": "function"
    },
    {
      "inputs": [
        {
          "internalType": "address",
          "name": "user",
          "type": "address"
        }
      ],
      "name": "getUsersSalams",
      "outputs": [
        {
          "internalType": "uint256",
          "name": "",
          "type": "uint256"
        }
      ],
      "stateMutability": "view",
      "type": "function"
    },
    {
      "inputs": [],
      "name": "gettheSeed",
      "outputs": [
        {
          "internalType": "uint256",
          "name": "",
          "type": "uint256"
        }
      ],
      "stateMutability": "view",
      "type": "function"
    }
  ],
  "bytecode": "0x60806040526064424462000014919062000065565b620000209190620000cf565b60018190555062000107565b6000819050919050565b7f4e487b7100000000000000000000000000000000000000000000000000000000600052601160045260246000fd5b600062000072826200002c565b91506200007f836200002c565b92508282019050808211156200009a576200009962000036565b5b92915050565b7f4e487b7100000000000000000000000000000000000000000000000000000000600052601260045260246000fd5b6000620000dc826200002c565b9150620000e9836200002c565b925082620000fc57620000fb620000a0565b5b828206905092915050565b61111980620001176000396000f3fe608060405234801561001057600080fd5b50600436106100575760003560e01c80630443307e1461005c578063245a8e2a14610078578063694214da146100a857806369845d5a146100c6578063aa650c7f146100e4575b600080fd5b61007660048036038101906100719190610842565b610102565b005b610092600480360381019061008d91906108e9565b610531565b60405161009f919061092f565b60405180910390f35b6100b061057a565b6040516100bd919061092f565b60405180910390f35b6100ce610584565b6040516100db9190610b0c565b60405180910390f35b6100ec6106df565b6040516100f9919061092f565b60405180910390f35b42603c600460003373ffffffffffffffffffffffffffffffffffffffff1673ffffffffffffffffffffffffffffffffffffffff1681526020019081526020016000205461014f9190610b5d565b1115610190576040517f08c379a000000000000000000000000000000000000000000000000000000000815260040161018790610bee565b60405180910390fd5b60016000808282546101a29190610b5d565b925050819055506001600360003373ffffffffffffffffffffffffffffffffffffffff1673ffffffffffffffffffffffffffffffffffffffff16815260200190815260200160002060008282546101f99190610b5d565b92505081905550600260405180608001604052803373ffffffffffffffffffffffffffffffffffffffff168152602001838152602001600360003373ffffffffffffffffffffffffffffffffffffffff1673ffffffffffffffffffffffffffffffffffffffff16815260200190815260200160002054815260200142815250908060018154018082558091505060019003906000526020600020906004020160009091909190915060008201518160000160006101000a81548173ffffffffffffffffffffffffffffffffffffffff021916908373ffffffffffffffffffffffffffffffffffffffff16021790555060208201518160010190816102fd9190610e1a565b5060408201518160020155606082015181600301555050606460015444426103259190610b5d565b61032f9190610b5d565b6103399190610f1b565b600181905550603c6001541161044657600066038d7ea4c680009050478110610397576040517f08c379a000000000000000000000000000000000000000000000000000000000815260040161038e90610fbe565b60405180910390fd5b60003373ffffffffffffffffffffffffffffffffffffffff16826040516103bd9061100f565b60006040518083038185875af1925050503d80600081146103fa576040519150601f19603f3d011682016040523d82523d6000602084013e6103ff565b606091505b5050905080610443576040517f08c379a000000000000000000000000000000000000000000000000000000000815260040161043a90611070565b60405180910390fd5b50505b42600460003373ffffffffffffffffffffffffffffffffffffffff1673ffffffffffffffffffffffffffffffffffffffff16815260200190815260200160002081905550600360003373ffffffffffffffffffffffffffffffffffffffff1673ffffffffffffffffffffffffffffffffffffffff16815260200190815260200160002054816040516104d891906110cc565b60405180910390203373ffffffffffffffffffffffffffffffffffffffff167f30f73dd284dff0c1db9d60b6df426998780e4e5a7e5a8b6a1e5abccfce8e628942604051610526919061092f565b60405180910390a450565b6000600360008373ffffffffffffffffffffffffffffffffffffffff1673ffffffffffffffffffffffffffffffffffffffff168152602001908152602001600020549050919050565b6000600154905090565b60606002805480602002602001604051908101604052809291908181526020016000905b828210156106d657838290600052602060002090600402016040518060800160405290816000820160009054906101000a900473ffffffffffffffffffffffffffffffffffffffff1673ffffffffffffffffffffffffffffffffffffffff1673ffffffffffffffffffffffffffffffffffffffff16815260200160018201805461063190610c3d565b80601f016020809104026020016040519081016040528092919081815260200182805461065d90610c3d565b80156106aa5780601f1061067f576101008083540402835291602001916106aa565b820191906000526020600020905b81548152906001019060200180831161068d57829003601f168201915b5050505050815260200160028201548152602001600382015481525050815260200190600101906105a8565b50505050905090565b60008054905090565b6000604051905090565b600080fd5b600080fd5b600080fd5b600080fd5b6000601f19601f8301169050919050565b7f4e487b7100000000000000000000000000000000000000000000000000000000600052604160045260246000fd5b61074f82610706565b810181811067ffffffffffffffff8211171561076e5761076d610717565b5b80604052505050565b60006107816106e8565b905061078d8282610746565b919050565b600067ffffffffffffffff8211156107ad576107ac610717565b5b6107b682610706565b9050602081019050919050565b82818337600083830152505050565b60006107e56107e084610792565b610777565b90508281526020810184848401111561080157610800610701565b5b61080c8482856107c3565b509392505050565b600082601f830112610829576108286106fc565b5b81356108398482602086016107d2565b91505092915050565b600060208284031215610858576108576106f2565b5b600082013567ffffffffffffffff811115610876576108756106f7565b5b61088284828501610814565b91505092915050565b600073ffffffffffffffffffffffffffffffffffffffff82169050919050565b60006108b68261088b565b9050919050565b6108c6816108ab565b81146108d157600080fd5b50565b6000813590506108e3816108bd565b92915050565b6000602082840312156108ff576108fe6106f2565b5b600061090d848285016108d4565b91505092915050565b6000819050919050565b61092981610916565b82525050565b60006020820190506109446000830184610920565b92915050565b600081519050919050565b600082825260208201905092915050565b6000819050602082019050919050565b61097f816108ab565b82525050565b600081519050919050565b600082825260208201905092915050565b60005b838110156109bf5780820151818401526020810190506109a4565b60008484015250505050565b60006109d682610985565b6109e08185610990565b93506109f08185602086016109a1565b6109f981610706565b840191505092915050565b610a0d81610916565b82525050565b6000608083016000830151610a2b6000860182610976565b5060208301518482036020860152610a4382826109cb565b9150506040830151610a586040860182610a04565b506060830151610a6b6060860182610a04565b508091505092915050565b6000610a828383610a13565b905092915050565b6000602082019050919050565b6000610aa28261094a565b610aac8185610955565b935083602082028501610abe85610966565b8060005b85811015610afa5784840389528151610adb8582610a76565b9450610ae683610a8a565b925060208a01995050600181019050610ac2565b50829750879550505050505092915050565b60006020820190508181036000830152610b268184610a97565b905092915050565b7f4e487b7100000000000000000000000000000000000000000000000000000000600052601160045260246000fd5b6000610b6882610916565b9150610b7383610916565b9250828201905080821115610b8b57610b8a610b2e565b5b92915050565b600082825260208201905092915050565b7f776169742031206d696e75746500000000000000000000000000000000000000600082015250565b6000610bd8600d83610b91565b9150610be382610ba2565b602082019050919050565b60006020820190508181036000830152610c0781610bcb565b9050919050565b7f4e487b7100000000000000000000000000000000000000000000000000000000600052602260045260246000fd5b60006002820490506001821680610c5557607f821691505b602082108103610c6857610c67610c0e565b5b50919050565b60008190508160005260206000209050919050565b60006020601f8301049050919050565b600082821b905092915050565b600060088302610cd07fffffffffffffffffffffffffffffffffffffffffffffffffffffffffffffffff82610c93565b610cda8683610c93565b95508019841693508086168417925050509392505050565b6000819050919050565b6000610d17610d12610d0d84610916565b610cf2565b610916565b9050919050565b6000819050919050565b610d3183610cfc565b610d45610d3d82610d1e565b848454610ca0565b825550505050565b600090565b610d5a610d4d565b610d65818484610d28565b505050565b5b81811015610d8957610d7e600082610d52565b600181019050610d6b565b5050565b601f821115610dce57610d9f81610c6e565b610da884610c83565b81016020851015610db7578190505b610dcb610dc385610c83565b830182610d6a565b50505b505050565b600082821c905092915050565b6000610df160001984600802610dd3565b1980831691505092915050565b6000610e0a8383610de0565b9150826002028217905092915050565b610e2382610985565b67ffffffffffffffff811115610e3c57610e3b610717565b5b610e468254610c3d565b610e51828285610d8d565b600060209050601f831160018114610e845760008415610e72578287015190505b610e7c8582610dfe565b865550610ee4565b601f198416610e9286610c6e565b60005b82811015610eba57848901518255600182019150602085019450602081019050610e95565b86831015610ed75784890151610ed3601f891682610de0565b8355505b6001600288020188555050505b505050505050565b7f4e487b7100000000000000000000000000000000000000000000000000000000600052601260045260246000fd5b6000610f2682610916565b9150610f3183610916565b925082610f4157610f40610eec565b5b828206905092915050565b7f636f6e747261637420646f6573206e6f74206861766520656e6f75676820626160008201527f6c616e6365210000000000000000000000000000000000000000000000000000602082015250565b6000610fa8602683610b91565b9150610fb382610f4c565b604082019050919050565b60006020820190508181036000830152610fd781610f9b565b9050919050565b600081905092915050565b50565b6000610ff9600083610fde565b915061100482610fe9565b600082019050919050565b600061101a82610fec565b9150819050919050565b7f7472616e7366657220455448207761736e2774207375636365737366756c2100600082015250565b600061105a601f83610b91565b915061106582611024565b602082019050919050565b600060208201905081810360008301526110898161104d565b9050919050565b600081905092915050565b60006110a682610985565b6110b08185611090565b93506110c08185602086016109a1565b80840191505092915050565b60006110d8828461109b565b91508190509291505056fea26469706673582212205c35d7f82004fa1ca6e44118ab7763451feb9120e7e40a57bd564714c6c6371a64736f6c63430008110033",
  "linkReferences": {},
  "deployedLinkReferences": {}
}