{
  "_format": "hh-sol-artifact-1",
  "contractName": "newContract",
  "sourceName": "contracts/newcontract.sol",
  "abi": [
    {
      "inputs": [],
      "stateMutability": "payable",
      "type": "constructor"
    },
    {
      "anonymous": false,
      "inputs": [
        {
          "indexed": true,
          "internalType": "address",
          "name": "salamkon",
          "type": "address"
        },
        {
          "indexed": true,
          "internalType": "string",
          "name": "message",
          "type": "string"
        },
        {
          "indexed": true,
          "internalType": "uint256",
          "name": "numberOfSalams",
          "type": "uint256"
        },
        {
          "indexed": false,
          "internalType": "uint256",
          "name": "timestamp",
          "type": "uint256"
        }
      ],
      "name": "newSalam",
      "type": "event"
    },
    {
      "inputs": [
        {
          "internalType": "string",
          "name": "message",
          "type": "string"
        }
      ],
      "name": "Salam",
      "outputs": [],
      "stateMutability": "nonpayable",
      "type": "function"
    },
    {
      "inputs": [],
      "name": "getAllSalamkona",
      "outputs": [
        {
          "components": [
            {
              "internalType": "address",
              "name": "salamkon",
              "type": "address"
            },
            {
              "internalType": "string",
              "name": "message",
              "type": "string"
            },
            {
              "internalType": "uint256",
              "name": "numberOfSalams",
              "type": "uint256"
            },
            {
              "internalType": "uint256",
              "name": "timestamp",
              "type": "uint256"
            }
          ],
          "internalType": "struct newContract.salamkona[]",
          "name": "",
          "type": "tuple[]"
        }
      ],
      "stateMutability": "view",
      "type": "function"
    },
    {
      "inputs": [],
      "name": "getTotalSalams",
      "outputs": [
        {
          "internalType": "uint256",
          "name": "",
          "type": "uint256"
        }
      ],
      "stateMutability": "view",
      "type": "function"
    },
    {
      "inputs": [
        {
          "internalType": "address",
          "name": "user",
          "type": "address"
        }
      ],
      "name": "getUsersSalams",
      "outputs": [
        {
          "internalType": "uint256",
          "name": "",
          "type": "uint256"
        }
      ],
      "stateMutability": "view",
      "type": "function"
    }
  ],
  "bytecode": "0x6080604052610fe0806100136000396000f3fe608060405234801561001057600080fd5b506004361061004c5760003560e01c80630443307e14610051578063245a8e2a1461006d57806369845d5a1461009d578063aa650c7f146100bb575b600080fd5b61006b600480360381019061006691906107da565b6100d9565b005b61008760048036038101906100829190610881565b61040b565b60405161009491906108c7565b60405180910390f35b6100a5610454565b6040516100b29190610aa4565b60405180910390f35b6100c36105af565b6040516100d091906108c7565b60405180910390f35b60016000808282546100eb9190610af5565b925050819055506001600260003373ffffffffffffffffffffffffffffffffffffffff1673ffffffffffffffffffffffffffffffffffffffff16815260200190815260200160002060008282546101429190610af5565b925050819055506101896040518060400160405280601f81526020017f257320736169642053616c616d2077697468206d617373616765203a2025730081525033836105b8565b600160405180608001604052803373ffffffffffffffffffffffffffffffffffffffff168152602001838152602001600260003373ffffffffffffffffffffffffffffffffffffffff1673ffffffffffffffffffffffffffffffffffffffff16815260200190815260200160002054815260200142815250908060018154018082558091505060019003906000526020600020906004020160009091909190915060008201518160000160006101000a81548173ffffffffffffffffffffffffffffffffffffffff021916908373ffffffffffffffffffffffffffffffffffffffff16021790555060208201518160010190816102869190610d35565b5060408201518160020155606082015181600301555050600260003373ffffffffffffffffffffffffffffffffffffffff1673ffffffffffffffffffffffffffffffffffffffff16815260200190815260200160002054816040516102eb9190610e43565b60405180910390203373ffffffffffffffffffffffffffffffffffffffff167f30f73dd284dff0c1db9d60b6df426998780e4e5a7e5a8b6a1e5abccfce8e62894260405161033991906108c7565b60405180910390a4600066038d7ea4c6800090504781111561035a57600080fd5b60003373ffffffffffffffffffffffffffffffffffffffff168260405161038090610e8b565b60006040518083038185875af1925050503d80600081146103bd576040519150601f19603f3d011682016040523d82523d6000602084013e6103c2565b606091505b5050905080610406576040517f08c379a00000000000000000000000000000000000000000000000000000000081526004016103fd90610efd565b60405180910390fd5b505050565b6000600260008373ffffffffffffffffffffffffffffffffffffffff1673ffffffffffffffffffffffffffffffffffffffff168152602001908152602001600020549050919050565b60606001805480602002602001604051908101604052809291908181526020016000905b828210156105a657838290600052602060002090600402016040518060800160405290816000820160009054906101000a900473ffffffffffffffffffffffffffffffffffffffff1673ffffffffffffffffffffffffffffffffffffffff1673ffffffffffffffffffffffffffffffffffffffff16815260200160018201805461050190610b58565b80601f016020809104026020016040519081016040528092919081815260200182805461052d90610b58565b801561057a5780601f1061054f5761010080835404028352916020019161057a565b820191906000526020600020905b81548152906001019060200180831161055d57829003601f168201915b505050505081526020016002820154815260200160038201548152505081526020019060010190610478565b50505050905090565b60008054905090565b6106528383836040516024016105d093929190610f65565b6040516020818303038152906040527fe0e9ad4f000000000000000000000000000000000000000000000000000000007bffffffffffffffffffffffffffffffffffffffffffffffffffffffff19166020820180517bffffffffffffffffffffffffffffffffffffffffffffffffffffffff8381831617835250505050610657565b505050565b60008151905060006a636f6e736f6c652e6c6f679050602083016000808483855afa5050505050565b6000604051905090565b600080fd5b600080fd5b600080fd5b600080fd5b6000601f19601f8301169050919050565b7f4e487b7100000000000000000000000000000000000000000000000000000000600052604160045260246000fd5b6106e78261069e565b810181811067ffffffffffffffff82111715610706576107056106af565b5b80604052505050565b6000610719610680565b905061072582826106de565b919050565b600067ffffffffffffffff821115610745576107446106af565b5b61074e8261069e565b9050602081019050919050565b82818337600083830152505050565b600061077d6107788461072a565b61070f565b90508281526020810184848401111561079957610798610699565b5b6107a484828561075b565b509392505050565b600082601f8301126107c1576107c0610694565b5b81356107d184826020860161076a565b91505092915050565b6000602082840312156107f0576107ef61068a565b5b600082013567ffffffffffffffff81111561080e5761080d61068f565b5b61081a848285016107ac565b91505092915050565b600073ffffffffffffffffffffffffffffffffffffffff82169050919050565b600061084e82610823565b9050919050565b61085e81610843565b811461086957600080fd5b50565b60008135905061087b81610855565b92915050565b6000602082840312156108975761089661068a565b5b60006108a58482850161086c565b91505092915050565b6000819050919050565b6108c1816108ae565b82525050565b60006020820190506108dc60008301846108b8565b92915050565b600081519050919050565b600082825260208201905092915050565b6000819050602082019050919050565b61091781610843565b82525050565b600081519050919050565b600082825260208201905092915050565b60005b8381101561095757808201518184015260208101905061093c565b60008484015250505050565b600061096e8261091d565b6109788185610928565b9350610988818560208601610939565b6109918161069e565b840191505092915050565b6109a5816108ae565b82525050565b60006080830160008301516109c3600086018261090e565b50602083015184820360208601526109db8282610963565b91505060408301516109f0604086018261099c565b506060830151610a03606086018261099c565b508091505092915050565b6000610a1a83836109ab565b905092915050565b6000602082019050919050565b6000610a3a826108e2565b610a4481856108ed565b935083602082028501610a56856108fe565b8060005b85811015610a925784840389528151610a738582610a0e565b9450610a7e83610a22565b925060208a01995050600181019050610a5a565b50829750879550505050505092915050565b60006020820190508181036000830152610abe8184610a2f565b905092915050565b7f4e487b7100000000000000000000000000000000000000000000000000000000600052601160045260246000fd5b6000610b00826108ae565b9150610b0b836108ae565b9250828201905080821115610b2357610b22610ac6565b5b92915050565b7f4e487b7100000000000000000000000000000000000000000000000000000000600052602260045260246000fd5b60006002820490506001821680610b7057607f821691505b602082108103610b8357610b82610b29565b5b50919050565b60008190508160005260206000209050919050565b60006020601f8301049050919050565b600082821b905092915050565b600060088302610beb7fffffffffffffffffffffffffffffffffffffffffffffffffffffffffffffffff82610bae565b610bf58683610bae565b95508019841693508086168417925050509392505050565b6000819050919050565b6000610c32610c2d610c28846108ae565b610c0d565b6108ae565b9050919050565b6000819050919050565b610c4c83610c17565b610c60610c5882610c39565b848454610bbb565b825550505050565b600090565b610c75610c68565b610c80818484610c43565b505050565b5b81811015610ca457610c99600082610c6d565b600181019050610c86565b5050565b601f821115610ce957610cba81610b89565b610cc384610b9e565b81016020851015610cd2578190505b610ce6610cde85610b9e565b830182610c85565b50505b505050565b600082821c905092915050565b6000610d0c60001984600802610cee565b1980831691505092915050565b6000610d258383610cfb565b9150826002028217905092915050565b610d3e8261091d565b67ffffffffffffffff811115610d5757610d566106af565b5b610d618254610b58565b610d6c828285610ca8565b600060209050601f831160018114610d9f5760008415610d8d578287015190505b610d978582610d19565b865550610dff565b601f198416610dad86610b89565b60005b82811015610dd557848901518255600182019150602085019450602081019050610db0565b86831015610df25784890151610dee601f891682610cfb565b8355505b6001600288020188555050505b505050505050565b600081905092915050565b6000610e1d8261091d565b610e278185610e07565b9350610e37818560208601610939565b80840191505092915050565b6000610e4f8284610e12565b915081905092915050565b600081905092915050565b50565b6000610e75600083610e5a565b9150610e8082610e65565b600082019050919050565b6000610e9682610e68565b9150819050919050565b600082825260208201905092915050565b7f73656e64696e672045544820776173206e6f74207375636365737366756c2100600082015250565b6000610ee7601f83610ea0565b9150610ef282610eb1565b602082019050919050565b60006020820190508181036000830152610f1681610eda565b9050919050565b6000610f288261091d565b610f328185610ea0565b9350610f42818560208601610939565b610f4b8161069e565b840191505092915050565b610f5f81610843565b82525050565b60006060820190508181036000830152610f7f8186610f1d565b9050610f8e6020830185610f56565b8181036040830152610fa08184610f1d565b905094935050505056fea2646970667358221220d3ddfbd4d3c5f63f01cf6218a98e48fc7e27e5fe56920145e869dd18c6bd98e064736f6c63430008110033",
  "linkReferences": {},
  "deployedLinkReferences": {}
}