{
  "_format": "hh-sol-artifact-1",
  "contractName": "newContract",
  "sourceName": "contracts/newcontract.sol",
  "abi": [
    {
      "inputs": [],
      "stateMutability": "nonpayable",
      "type": "constructor"
    },
    {
      "inputs": [
        {
          "internalType": "string",
          "name": "userName",
          "type": "string"
        }
      ],
      "name": "Salam",
      "outputs": [],
      "stateMutability": "nonpayable",
      "type": "function"
    },
    {
      "inputs": [],
      "name": "getTotalSalams",
      "outputs": [
        {
          "internalType": "uint256",
          "name": "",
          "type": "uint256"
        }
      ],
      "stateMutability": "view",
      "type": "function"
    },
    {
      "inputs": [
        {
          "internalType": "string",
          "name": "userName",
          "type": "string"
        }
      ],
      "name": "getUserSalams",
      "outputs": [],
      "stateMutability": "view",
      "type": "function"
    }
  ],
  "bytecode": "0x608060405234801561001057600080fd5b506100596040518060400160405280600481526020017f73696e610000000000000000000000000000000000000000000000000000000081525061005e60201b6102591760201c565b6101d8565b6100fa8160405160240161007291906101b6565b6040516020818303038152906040527f41304fac000000000000000000000000000000000000000000000000000000007bffffffffffffffffffffffffffffffffffffffffffffffffffffffff19166020820180517bffffffffffffffffffffffffffffffffffffffffffffffffffffffff83818316178352505050506100fd60201b60201c565b50565b60008151905060006a636f6e736f6c652e6c6f679050602083016000808483855afa5050505050565b600081519050919050565b600082825260208201905092915050565b60005b83811015610160578082015181840152602081019050610145565b60008484015250505050565b6000601f19601f8301169050919050565b600061018882610126565b6101928185610131565b93506101a2818560208601610142565b6101ab8161016c565b840191505092915050565b600060208201905081810360008301526101d0818461017d565b905092915050565b610a8e806101e76000396000f3fe608060405234801561001057600080fd5b50600436106100415760003560e01c80630443307e146100465780639c02450914610062578063aa650c7f1461007e575b600080fd5b610060600480360381019061005b91906106eb565b61009c565b005b61007c600480360381019061007791906106eb565b61012e565b005b61008661020e565b604051610093919061074d565b60405180910390f35b60016000826040516100ae91906107d9565b908152602001604051809103902060008282546100cb919061081f565b9250508190555060018060008282546100e4919061081f565b9250508190555061012b6040518060400160405280601481526020017f257320616b6120257320736169642053616c616d00000000000000000000000081525033836102f2565b50565b600160008260405161014091906107d9565b9081526020016040518091039020540361017b576101766040518060600160405280602181526020016109f26021913982610391565b61020b565b600260008260405161018d91906107d9565b908152602001604051809103902054036101c8576101c3604051806060016040528060228152602001610a376022913982610391565b61020a565b610209604051806060016040528060248152602001610a1360249139826000846040516101f591906107d9565b90815260200160405180910390205461042d565b5b5b50565b60006102516040518060400160405280601c81526020017f796f75206861766520746f74616c206f662025642073616c616d7321000000008152506001546104cc565b600154905090565b6102ef8160405160240161026d919061089d565b6040516020818303038152906040527f41304fac000000000000000000000000000000000000000000000000000000007bffffffffffffffffffffffffffffffffffffffffffffffffffffffff19166020820180517bffffffffffffffffffffffffffffffffffffffffffffffffffffffff8381831617835250505050610568565b50565b61038c83838360405160240161030a93929190610900565b6040516020818303038152906040527fe0e9ad4f000000000000000000000000000000000000000000000000000000007bffffffffffffffffffffffffffffffffffffffffffffffffffffffff19166020820180517bffffffffffffffffffffffffffffffffffffffffffffffffffffffff8381831617835250505050610568565b505050565b61042982826040516024016103a7929190610945565b6040516020818303038152906040527f4b5c4277000000000000000000000000000000000000000000000000000000007bffffffffffffffffffffffffffffffffffffffffffffffffffffffff19166020820180517bffffffffffffffffffffffffffffffffffffffffffffffffffffffff8381831617835250505050610568565b5050565b6104c78383836040516024016104459392919061097c565b6040516020818303038152906040527f5821efa1000000000000000000000000000000000000000000000000000000007bffffffffffffffffffffffffffffffffffffffffffffffffffffffff19166020820180517bffffffffffffffffffffffffffffffffffffffffffffffffffffffff8381831617835250505050610568565b505050565b61056482826040516024016104e29291906109c1565b6040516020818303038152906040527fb60e72cc000000000000000000000000000000000000000000000000000000007bffffffffffffffffffffffffffffffffffffffffffffffffffffffff19166020820180517bffffffffffffffffffffffffffffffffffffffffffffffffffffffff8381831617835250505050610568565b5050565b60008151905060006a636f6e736f6c652e6c6f679050602083016000808483855afa5050505050565b6000604051905090565b600080fd5b600080fd5b600080fd5b600080fd5b6000601f19601f8301169050919050565b7f4e487b7100000000000000000000000000000000000000000000000000000000600052604160045260246000fd5b6105f8826105af565b810181811067ffffffffffffffff82111715610617576106166105c0565b5b80604052505050565b600061062a610591565b905061063682826105ef565b919050565b600067ffffffffffffffff821115610656576106556105c0565b5b61065f826105af565b9050602081019050919050565b82818337600083830152505050565b600061068e6106898461063b565b610620565b9050828152602081018484840111156106aa576106a96105aa565b5b6106b584828561066c565b509392505050565b600082601f8301126106d2576106d16105a5565b5b81356106e284826020860161067b565b91505092915050565b6000602082840312156107015761070061059b565b5b600082013567ffffffffffffffff81111561071f5761071e6105a0565b5b61072b848285016106bd565b91505092915050565b6000819050919050565b61074781610734565b82525050565b6000602082019050610762600083018461073e565b92915050565b600081519050919050565b600081905092915050565b60005b8381101561079c578082015181840152602081019050610781565b60008484015250505050565b60006107b382610768565b6107bd8185610773565b93506107cd81856020860161077e565b80840191505092915050565b60006107e582846107a8565b915081905092915050565b7f4e487b7100000000000000000000000000000000000000000000000000000000600052601160045260246000fd5b600061082a82610734565b915061083583610734565b925082820190508082111561084d5761084c6107f0565b5b92915050565b600082825260208201905092915050565b600061086f82610768565b6108798185610853565b935061088981856020860161077e565b610892816105af565b840191505092915050565b600060208201905081810360008301526108b78184610864565b905092915050565b600073ffffffffffffffffffffffffffffffffffffffff82169050919050565b60006108ea826108bf565b9050919050565b6108fa816108df565b82525050565b6000606082019050818103600083015261091a8186610864565b905061092960208301856108f1565b818103604083015261093b8184610864565b9050949350505050565b6000604082019050818103600083015261095f8185610864565b905081810360208301526109738184610864565b90509392505050565b600060608201905081810360008301526109968186610864565b905081810360208301526109aa8185610864565b90506109b9604083018461073e565b949350505050565b600060408201905081810360008301526109db8185610864565b90506109ea602083018461073e565b939250505056fe7468652075736572202573206861766520736169642073616c616d206f6e6365217468652075736572202573206861766520736169642073616c616d2025642074696d65737468652075736572202573206861766520736169642073616c616d20747769636521a2646970667358221220595d84eb946ec9a217c463acc35c68b09914a2e240342676ea67874849bc912664736f6c63430008110033",
  "linkReferences": {},
  "deployedLinkReferences": {}
}