{
  "_format": "hh-sol-artifact-1",
  "contractName": "newContract",
  "sourceName": "contracts/newcontract.sol",
  "abi": [
    {
      "inputs": [],
      "stateMutability": "payable",
      "type": "constructor"
    },
    {
      "anonymous": false,
      "inputs": [
        {
          "indexed": true,
          "internalType": "address",
          "name": "salamkon",
          "type": "address"
        },
        {
          "indexed": true,
          "internalType": "string",
          "name": "message",
          "type": "string"
        },
        {
          "indexed": true,
          "internalType": "uint256",
          "name": "numberOfSalams",
          "type": "uint256"
        },
        {
          "indexed": false,
          "internalType": "uint256",
          "name": "timestamp",
          "type": "uint256"
        }
      ],
      "name": "newSalam",
      "type": "event"
    },
    {
      "inputs": [
        {
          "internalType": "string",
          "name": "message",
          "type": "string"
        }
      ],
      "name": "Salam",
      "outputs": [],
      "stateMutability": "nonpayable",
      "type": "function"
    },
    {
      "inputs": [],
      "name": "getAllSalamkona",
      "outputs": [
        {
          "components": [
            {
              "internalType": "address",
              "name": "salamkon",
              "type": "address"
            },
            {
              "internalType": "string",
              "name": "message",
              "type": "string"
            },
            {
              "internalType": "uint256",
              "name": "numberOfSalams",
              "type": "uint256"
            },
            {
              "internalType": "uint256",
              "name": "timestamp",
              "type": "uint256"
            }
          ],
          "internalType": "struct newContract.salamkona[]",
          "name": "",
          "type": "tuple[]"
        }
      ],
      "stateMutability": "view",
      "type": "function"
    },
    {
      "inputs": [],
      "name": "getTotalSalams",
      "outputs": [
        {
          "internalType": "uint256",
          "name": "",
          "type": "uint256"
        }
      ],
      "stateMutability": "view",
      "type": "function"
    },
    {
      "inputs": [
        {
          "internalType": "address",
          "name": "user",
          "type": "address"
        }
      ],
      "name": "getUsersSalams",
      "outputs": [
        {
          "internalType": "uint256",
          "name": "",
          "type": "uint256"
        }
      ],
      "stateMutability": "view",
      "type": "function"
    }
  ],
  "bytecode": "0x60806040526064424462000014919062000065565b620000209190620000cf565b60018190555062000107565b6000819050919050565b7f4e487b7100000000000000000000000000000000000000000000000000000000600052601160045260246000fd5b600062000072826200002c565b91506200007f836200002c565b92508282019050808211156200009a576200009962000036565b5b92915050565b7f4e487b7100000000000000000000000000000000000000000000000000000000600052601260045260246000fd5b6000620000dc826200002c565b9150620000e9836200002c565b925082620000fc57620000fb620000a0565b5b828206905092915050565b61112e80620001176000396000f3fe608060405234801561001057600080fd5b506004361061004c5760003560e01c80630443307e14610051578063245a8e2a1461006d57806369845d5a1461009d578063aa650c7f146100bb575b600080fd5b61006b60048036038101906100669190610857565b6100d9565b005b610087600480360381019061008291906108fe565b610550565b6040516100949190610944565b60405180910390f35b6100a5610599565b6040516100b29190610b21565b60405180910390f35b6100c36106f4565b6040516100d09190610944565b60405180910390f35b42610e10600460003373ffffffffffffffffffffffffffffffffffffffff1673ffffffffffffffffffffffffffffffffffffffff168152602001908152602001600020546101279190610b72565b1115610168576040517f08c379a000000000000000000000000000000000000000000000000000000000815260040161015f90610c03565b60405180910390fd5b600160008082825461017a9190610b72565b925050819055506001600360003373ffffffffffffffffffffffffffffffffffffffff1673ffffffffffffffffffffffffffffffffffffffff16815260200190815260200160002060008282546101d19190610b72565b92505081905550600260405180608001604052803373ffffffffffffffffffffffffffffffffffffffff168152602001838152602001600360003373ffffffffffffffffffffffffffffffffffffffff1673ffffffffffffffffffffffffffffffffffffffff16815260200190815260200160002054815260200142815250908060018154018082558091505060019003906000526020600020906004020160009091909190915060008201518160000160006101000a81548173ffffffffffffffffffffffffffffffffffffffff021916908373ffffffffffffffffffffffffffffffffffffffff16021790555060208201518160010190816102d59190610e2f565b5060408201518160020155606082015181600301555050606460015444426102fd9190610b72565b6103079190610b72565b6103119190610f30565b600181905550601e6001541161046557600066038d7ea4c68000905047811061036f576040517f08c379a000000000000000000000000000000000000000000000000000000000815260040161036690610fd3565b60405180910390fd5b3373ffffffffffffffffffffffffffffffffffffffff166108fc829081150290604051600060405180830381858888f193505050501580156103b5573d6000803e3d6000fd5b5060003373ffffffffffffffffffffffffffffffffffffffff16826040516103dc90611024565b60006040518083038185875af1925050503d8060008114610419576040519150601f19603f3d011682016040523d82523d6000602084013e61041e565b606091505b5050905080610462576040517f08c379a000000000000000000000000000000000000000000000000000000000815260040161045990611085565b60405180910390fd5b50505b42600460003373ffffffffffffffffffffffffffffffffffffffff1673ffffffffffffffffffffffffffffffffffffffff16815260200190815260200160002081905550600360003373ffffffffffffffffffffffffffffffffffffffff1673ffffffffffffffffffffffffffffffffffffffff16815260200190815260200160002054816040516104f791906110e1565b60405180910390203373ffffffffffffffffffffffffffffffffffffffff167f30f73dd284dff0c1db9d60b6df426998780e4e5a7e5a8b6a1e5abccfce8e6289426040516105459190610944565b60405180910390a450565b6000600360008373ffffffffffffffffffffffffffffffffffffffff1673ffffffffffffffffffffffffffffffffffffffff168152602001908152602001600020549050919050565b60606002805480602002602001604051908101604052809291908181526020016000905b828210156106eb57838290600052602060002090600402016040518060800160405290816000820160009054906101000a900473ffffffffffffffffffffffffffffffffffffffff1673ffffffffffffffffffffffffffffffffffffffff1673ffffffffffffffffffffffffffffffffffffffff16815260200160018201805461064690610c52565b80601f016020809104026020016040519081016040528092919081815260200182805461067290610c52565b80156106bf5780601f10610694576101008083540402835291602001916106bf565b820191906000526020600020905b8154815290600101906020018083116106a257829003601f168201915b5050505050815260200160028201548152602001600382015481525050815260200190600101906105bd565b50505050905090565b60008054905090565b6000604051905090565b600080fd5b600080fd5b600080fd5b600080fd5b6000601f19601f8301169050919050565b7f4e487b7100000000000000000000000000000000000000000000000000000000600052604160045260246000fd5b6107648261071b565b810181811067ffffffffffffffff821117156107835761078261072c565b5b80604052505050565b60006107966106fd565b90506107a2828261075b565b919050565b600067ffffffffffffffff8211156107c2576107c161072c565b5b6107cb8261071b565b9050602081019050919050565b82818337600083830152505050565b60006107fa6107f5846107a7565b61078c565b90508281526020810184848401111561081657610815610716565b5b6108218482856107d8565b509392505050565b600082601f83011261083e5761083d610711565b5b813561084e8482602086016107e7565b91505092915050565b60006020828403121561086d5761086c610707565b5b600082013567ffffffffffffffff81111561088b5761088a61070c565b5b61089784828501610829565b91505092915050565b600073ffffffffffffffffffffffffffffffffffffffff82169050919050565b60006108cb826108a0565b9050919050565b6108db816108c0565b81146108e657600080fd5b50565b6000813590506108f8816108d2565b92915050565b60006020828403121561091457610913610707565b5b6000610922848285016108e9565b91505092915050565b6000819050919050565b61093e8161092b565b82525050565b60006020820190506109596000830184610935565b92915050565b600081519050919050565b600082825260208201905092915050565b6000819050602082019050919050565b610994816108c0565b82525050565b600081519050919050565b600082825260208201905092915050565b60005b838110156109d45780820151818401526020810190506109b9565b60008484015250505050565b60006109eb8261099a565b6109f581856109a5565b9350610a058185602086016109b6565b610a0e8161071b565b840191505092915050565b610a228161092b565b82525050565b6000608083016000830151610a40600086018261098b565b5060208301518482036020860152610a5882826109e0565b9150506040830151610a6d6040860182610a19565b506060830151610a806060860182610a19565b508091505092915050565b6000610a978383610a28565b905092915050565b6000602082019050919050565b6000610ab78261095f565b610ac1818561096a565b935083602082028501610ad38561097b565b8060005b85811015610b0f5784840389528151610af08582610a8b565b9450610afb83610a9f565b925060208a01995050600181019050610ad7565b50829750879550505050505092915050565b60006020820190508181036000830152610b3b8184610aac565b905092915050565b7f4e487b7100000000000000000000000000000000000000000000000000000000600052601160045260246000fd5b6000610b7d8261092b565b9150610b888361092b565b9250828201905080821115610ba057610b9f610b43565b5b92915050565b600082825260208201905092915050565b7f77616974203135206d696e757465730000000000000000000000000000000000600082015250565b6000610bed600f83610ba6565b9150610bf882610bb7565b602082019050919050565b60006020820190508181036000830152610c1c81610be0565b9050919050565b7f4e487b7100000000000000000000000000000000000000000000000000000000600052602260045260246000fd5b60006002820490506001821680610c6a57607f821691505b602082108103610c7d57610c7c610c23565b5b50919050565b60008190508160005260206000209050919050565b60006020601f8301049050919050565b600082821b905092915050565b600060088302610ce57fffffffffffffffffffffffffffffffffffffffffffffffffffffffffffffffff82610ca8565b610cef8683610ca8565b95508019841693508086168417925050509392505050565b6000819050919050565b6000610d2c610d27610d228461092b565b610d07565b61092b565b9050919050565b6000819050919050565b610d4683610d11565b610d5a610d5282610d33565b848454610cb5565b825550505050565b600090565b610d6f610d62565b610d7a818484610d3d565b505050565b5b81811015610d9e57610d93600082610d67565b600181019050610d80565b5050565b601f821115610de357610db481610c83565b610dbd84610c98565b81016020851015610dcc578190505b610de0610dd885610c98565b830182610d7f565b50505b505050565b600082821c905092915050565b6000610e0660001984600802610de8565b1980831691505092915050565b6000610e1f8383610df5565b9150826002028217905092915050565b610e388261099a565b67ffffffffffffffff811115610e5157610e5061072c565b5b610e5b8254610c52565b610e66828285610da2565b600060209050601f831160018114610e995760008415610e87578287015190505b610e918582610e13565b865550610ef9565b601f198416610ea786610c83565b60005b82811015610ecf57848901518255600182019150602085019450602081019050610eaa565b86831015610eec5784890151610ee8601f891682610df5565b8355505b6001600288020188555050505b505050505050565b7f4e487b7100000000000000000000000000000000000000000000000000000000600052601260045260246000fd5b6000610f3b8261092b565b9150610f468361092b565b925082610f5657610f55610f01565b5b828206905092915050565b7f636f6e747261637420646f6573206e6f74206861766520656e6f75676820626160008201527f6c616e6365210000000000000000000000000000000000000000000000000000602082015250565b6000610fbd602683610ba6565b9150610fc882610f61565b604082019050919050565b60006020820190508181036000830152610fec81610fb0565b9050919050565b600081905092915050565b50565b600061100e600083610ff3565b915061101982610ffe565b600082019050919050565b600061102f82611001565b9150819050919050565b7f7472616e7366657220455448207761736e2774207375636365737366756c2100600082015250565b600061106f601f83610ba6565b915061107a82611039565b602082019050919050565b6000602082019050818103600083015261109e81611062565b9050919050565b600081905092915050565b60006110bb8261099a565b6110c581856110a5565b93506110d58185602086016109b6565b80840191505092915050565b60006110ed82846110b0565b91508190509291505056fea26469706673582212200cdcbcd8cd106ed0ef6b7a9cf8113eb48008105fd805737bf249b1dfa5e9e2e464736f6c63430008110033",
  "linkReferences": {},
  "deployedLinkReferences": {}
}